{
  "contractName": "FieldOperations",
  "abi": [
    {
      "inputs": [],
      "stateMutability": "nonpayable",
      "type": "constructor"
    },
    {
      "anonymous": false,
      "inputs": [
        {
          "indexed": true,
          "internalType": "address",
          "name": "accepter",
          "type": "address"
        },
        {
          "indexed": true,
          "internalType": "address",
          "name": "requester",
          "type": "address"
        },
        {
          "indexed": true,
          "internalType": "uint256",
          "name": "date",
          "type": "uint256"
        },
        {
          "indexed": false,
          "internalType": "bool",
          "name": "status",
          "type": "bool"
        }
      ],
      "name": "requestAnswered",
      "type": "event"
    },
    {
      "anonymous": false,
      "inputs": [
        {
          "indexed": true,
          "internalType": "address",
          "name": "requester",
          "type": "address"
        },
        {
          "indexed": true,
          "internalType": "address",
          "name": "accepter",
          "type": "address"
        },
        {
          "indexed": true,
          "internalType": "uint256",
          "name": "date",
          "type": "uint256"
        }
      ],
      "name": "requestSent",
      "type": "event"
    },
    {
      "inputs": [],
      "name": "getOwner",
      "outputs": [
        {
          "internalType": "address",
          "name": "",
          "type": "address"
        }
      ],
      "stateMutability": "view",
      "type": "function",
      "constant": true
    },
    {
      "inputs": [],
      "name": "getNumberFields",
      "outputs": [
        {
          "internalType": "uint256",
          "name": "",
          "type": "uint256"
        }
      ],
      "stateMutability": "view",
      "type": "function",
      "constant": true
    },
    {
      "inputs": [],
      "name": "getFields",
      "outputs": [
        {
          "components": [
            {
              "internalType": "bytes",
              "name": "key",
              "type": "bytes"
            },
            {
              "internalType": "bytes",
              "name": "value",
              "type": "bytes"
            },
            {
              "internalType": "uint256",
              "name": "updateDate",
              "type": "uint256"
            },
            {
              "internalType": "bool",
              "name": "active",
              "type": "bool"
            }
          ],
          "internalType": "struct DataStructures.Field[]",
          "name": "",
          "type": "tuple[]"
        }
      ],
      "stateMutability": "view",
      "type": "function",
      "constant": true
    },
    {
      "inputs": [
        {
          "internalType": "uint256",
          "name": "_index",
          "type": "uint256"
        }
      ],
      "name": "getFieldByIndex",
      "outputs": [
        {
          "components": [
            {
              "internalType": "bytes",
              "name": "key",
              "type": "bytes"
            },
            {
              "internalType": "bytes",
              "name": "value",
              "type": "bytes"
            },
            {
              "internalType": "uint256",
              "name": "updateDate",
              "type": "uint256"
            },
            {
              "internalType": "bool",
              "name": "active",
              "type": "bool"
            }
          ],
          "internalType": "struct DataStructures.Field",
          "name": "",
          "type": "tuple"
        }
      ],
      "stateMutability": "view",
      "type": "function",
      "constant": true
    },
    {
      "inputs": [
        {
          "internalType": "bytes",
          "name": "_key",
          "type": "bytes"
        }
      ],
      "name": "getFieldByKey",
      "outputs": [
        {
          "components": [
            {
              "internalType": "bytes",
              "name": "key",
              "type": "bytes"
            },
            {
              "internalType": "bytes",
              "name": "value",
              "type": "bytes"
            },
            {
              "internalType": "uint256",
              "name": "updateDate",
              "type": "uint256"
            },
            {
              "internalType": "bool",
              "name": "active",
              "type": "bool"
            }
          ],
          "internalType": "struct DataStructures.Field",
          "name": "",
          "type": "tuple"
        }
      ],
      "stateMutability": "view",
      "type": "function",
      "constant": true
    },
    {
      "inputs": [
        {
          "internalType": "bytes",
          "name": "_key",
          "type": "bytes"
        },
        {
          "internalType": "bytes",
          "name": "_value",
          "type": "bytes"
        }
      ],
      "name": "addField",
      "outputs": [],
      "stateMutability": "nonpayable",
      "type": "function"
    },
    {
      "inputs": [
        {
          "internalType": "bytes",
          "name": "_key",
          "type": "bytes"
        },
        {
          "internalType": "bytes",
          "name": "_value",
          "type": "bytes"
        },
        {
          "internalType": "uint256",
          "name": "_index",
          "type": "uint256"
        }
      ],
      "name": "modifyField",
      "outputs": [],
      "stateMutability": "nonpayable",
      "type": "function"
    },
    {
      "inputs": [
        {
          "internalType": "bytes",
          "name": "_key",
          "type": "bytes"
        },
        {
          "internalType": "uint256",
          "name": "_index",
          "type": "uint256"
        }
      ],
      "name": "modifyFieldKey",
      "outputs": [],
      "stateMutability": "nonpayable",
      "type": "function"
    },
    {
      "inputs": [
        {
          "internalType": "bytes",
          "name": "_value",
          "type": "bytes"
        },
        {
          "internalType": "uint256",
          "name": "_index",
          "type": "uint256"
        }
      ],
      "name": "modifyFieldValue",
      "outputs": [],
      "stateMutability": "nonpayable",
      "type": "function"
    },
    {
      "inputs": [
        {
          "internalType": "uint256",
          "name": "_index",
          "type": "uint256"
        }
      ],
      "name": "toggleActiveField",
      "outputs": [],
      "stateMutability": "nonpayable",
      "type": "function"
    },
    {
      "inputs": [
        {
          "internalType": "address",
          "name": "_requester",
          "type": "address"
        },
        {
          "internalType": "address",
          "name": "_accepter",
          "type": "address"
        }
      ],
      "name": "sendRequest",
      "outputs": [],
      "stateMutability": "nonpayable",
      "type": "function"
    },
    {
      "inputs": [
        {
          "internalType": "address",
          "name": "_requester",
          "type": "address"
        },
        {
          "internalType": "address",
          "name": "_accepter",
          "type": "address"
        },
        {
          "internalType": "bool",
          "name": "status",
          "type": "bool"
        }
      ],
      "name": "answerRequest",
      "outputs": [],
      "stateMutability": "nonpayable",
      "type": "function"
    }
  ],
  "bytecode": "0x608060405234801561001057600080fd5b50336000806101000a81548173ffffffffffffffffffffffffffffffffffffffff021916908373ffffffffffffffffffffffffffffffffffffffff160217905550612153806100606000396000f3fe608060405234801561001057600080fd5b50600436106100b45760003560e01c806398b728be1161007157806398b728be14610177578063c835ce6014610193578063ca602492146101af578063d002bd50146101cd578063de0eae07146101e9578063f6ac538d14610219576100b4565b80632229339e146100b9578063239d44f0146100d55780635f11e08c146100f15780637cd9de211461010d578063893d20e8146101295780638ac834a314610147575b600080fd5b6100d360048036038101906100ce9190611454565b610237565b005b6100ef60048036038101906100ea919061150b565b61044a565b005b61010b60048036038101906101069190611596565b61056d565b005b610127600480360381019061012291906115d6565b6105cc565b005b6101316106e0565b60405161013e9190611645565b60405180910390f35b610161600480360381019061015c919061150b565b610797565b60405161016e9190611784565b60405180910390f35b610191600480360381019061018c91906117d2565b6109e7565b005b6101ad60048036038101906101a891906115d6565b610a52565b005b6101b7610b66565b6040516101c49190611951565b60405180910390f35b6101e760048036038101906101e29190611973565b610dd9565b005b61020360048036038101906101fe9190611b38565b610f03565b6040516102109190611784565b60405180910390f35b610221610fa9565b60405161022e9190611b90565b60405180910390f35b60008054906101000a900473ffffffffffffffffffffffffffffffffffffffff1673ffffffffffffffffffffffffffffffffffffffff163373ffffffffffffffffffffffffffffffffffffffff16146102c5576040517f08c379a00000000000000000000000000000000000000000000000000000000081526004016102bc90611c08565b60405180910390fd5b6102cd6113b1565b84848080601f016020809104026020016040519081016040528093929190818152602001838380828437600081840152601f19601f82011690508083019250505050505050816000018190525082828080601f016020809104026020016040519081016040528093929190818152602001838380828437600081840152601f19601f820116905080830192505050505050508160200181905250428160400181815250506001816060019015159081151581525050600160003373ffffffffffffffffffffffffffffffffffffffff1673ffffffffffffffffffffffffffffffffffffffff16815260200190815260200160002081908060018154018082558091505060019003906000526020600020906004020160009091909190915060008201518160000190816104009190611e34565b5060208201518160010190816104169190611e34565b506040820151816002015560608201518160030160006101000a81548160ff02191690831515021790555050505050505050565b60008054906101000a900473ffffffffffffffffffffffffffffffffffffffff1673ffffffffffffffffffffffffffffffffffffffff163373ffffffffffffffffffffffffffffffffffffffff16146104d8576040517f08c379a00000000000000000000000000000000000000000000000000000000081526004016104cf90611c08565b60405180910390fd5b6000600160003373ffffffffffffffffffffffffffffffffffffffff1673ffffffffffffffffffffffffffffffffffffffff168152602001908152602001600020828154811061052b5761052a611f06565b5b906000526020600020906004020190508060030160009054906101000a900460ff16158160030160006101000a81548160ff0219169083151502179055505050565b428173ffffffffffffffffffffffffffffffffffffffff168373ffffffffffffffffffffffffffffffffffffffff167fae1d2f975b20bf25057cb7c5078681878ea5506bbdc5fc5ce4b5767d7694174e60405160405180910390a45050565b60008054906101000a900473ffffffffffffffffffffffffffffffffffffffff1673ffffffffffffffffffffffffffffffffffffffff163373ffffffffffffffffffffffffffffffffffffffff161461065a576040517f08c379a000000000000000000000000000000000000000000000000000000000815260040161065190611c08565b60405180910390fd5b6000600160003373ffffffffffffffffffffffffffffffffffffffff1673ffffffffffffffffffffffffffffffffffffffff16815260200190815260200160002082815481106106ad576106ac611f06565b5b9060005260206000209060040201905083838260010191826106d0929190611f40565b5042816002018190555050505050565b60008060009054906101000a900473ffffffffffffffffffffffffffffffffffffffff1673ffffffffffffffffffffffffffffffffffffffff163373ffffffffffffffffffffffffffffffffffffffff1614610771576040517f08c379a000000000000000000000000000000000000000000000000000000000815260040161076890611c08565b60405180910390fd5b60008054906101000a900473ffffffffffffffffffffffffffffffffffffffff16905090565b61079f6113b1565b60008054906101000a900473ffffffffffffffffffffffffffffffffffffffff1673ffffffffffffffffffffffffffffffffffffffff163373ffffffffffffffffffffffffffffffffffffffff161461082d576040517f08c379a000000000000000000000000000000000000000000000000000000000815260040161082490611c08565b60405180910390fd5b600160003373ffffffffffffffffffffffffffffffffffffffff1673ffffffffffffffffffffffffffffffffffffffff168152602001908152602001600020828154811061087e5761087d611f06565b5b90600052602060002090600402016040518060800160405290816000820180546108a790611c57565b80601f01602080910402602001604051908101604052809291908181526020018280546108d390611c57565b80156109205780601f106108f557610100808354040283529160200191610920565b820191906000526020600020905b81548152906001019060200180831161090357829003601f168201915b5050505050815260200160018201805461093990611c57565b80601f016020809104026020016040519081016040528092919081815260200182805461096590611c57565b80156109b25780601f10610987576101008083540402835291602001916109b2565b820191906000526020600020905b81548152906001019060200180831161099557829003601f168201915b50505050508152602001600282015481526020016003820160009054906101000a900460ff1615151515815250509050919050565b428273ffffffffffffffffffffffffffffffffffffffff168473ffffffffffffffffffffffffffffffffffffffff167f8d7bdf2687b61e8a09b59a8f2d7f2e2cd59ebba1a2f059fc98db170736c6176a84604051610a45919061201f565b60405180910390a4505050565b60008054906101000a900473ffffffffffffffffffffffffffffffffffffffff1673ffffffffffffffffffffffffffffffffffffffff163373ffffffffffffffffffffffffffffffffffffffff1614610ae0576040517f08c379a0000000000000000000000000000000000000000000000000000000008152600401610ad790611c08565b60405180910390fd5b6000600160003373ffffffffffffffffffffffffffffffffffffffff1673ffffffffffffffffffffffffffffffffffffffff1681526020019081526020016000208281548110610b3357610b32611f06565b5b906000526020600020906004020190508383826000019182610b56929190611f40565b5042816002018190555050505050565b606060008054906101000a900473ffffffffffffffffffffffffffffffffffffffff1673ffffffffffffffffffffffffffffffffffffffff163373ffffffffffffffffffffffffffffffffffffffff1614610bf6576040517f08c379a0000000000000000000000000000000000000000000000000000000008152600401610bed90611c08565b60405180910390fd5b600160003373ffffffffffffffffffffffffffffffffffffffff1673ffffffffffffffffffffffffffffffffffffffff168152602001908152602001600020805480602002602001604051908101604052809291908181526020016000905b82821015610dd05783829060005260206000209060040201604051806080016040529081600082018054610c8890611c57565b80601f0160208091040260200160405190810160405280929190818152602001828054610cb490611c57565b8015610d015780601f10610cd657610100808354040283529160200191610d01565b820191906000526020600020905b815481529060010190602001808311610ce457829003601f168201915b50505050508152602001600182018054610d1a90611c57565b80601f0160208091040260200160405190810160405280929190818152602001828054610d4690611c57565b8015610d935780601f10610d6857610100808354040283529160200191610d93565b820191906000526020600020905b815481529060010190602001808311610d7657829003601f168201915b50505050508152602001600282015481526020016003820160009054906101000a900460ff16151515158152505081526020019060010190610c55565b50505050905090565b60008054906101000a900473ffffffffffffffffffffffffffffffffffffffff1673ffffffffffffffffffffffffffffffffffffffff163373ffffffffffffffffffffffffffffffffffffffff1614610e67576040517f08c379a0000000000000000000000000000000000000000000000000000000008152600401610e5e90611c08565b60405180910390fd5b6000600160003373ffffffffffffffffffffffffffffffffffffffff1673ffffffffffffffffffffffffffffffffffffffff1681526020019081526020016000208281548110610eba57610eb9611f06565b5b906000526020600020906004020190508585826000019182610edd929190611f40565b508383826001019182610ef1929190611f40565b50428160020181905550505050505050565b610f0b6113b1565b60008054906101000a900473ffffffffffffffffffffffffffffffffffffffff1673ffffffffffffffffffffffffffffffffffffffff163373ffffffffffffffffffffffffffffffffffffffff1614610f99576040517f08c379a0000000000000000000000000000000000000000000000000000000008152600401610f9090611c08565b60405180910390fd5b610fa282611082565b9050919050565b60008060009054906101000a900473ffffffffffffffffffffffffffffffffffffffff1673ffffffffffffffffffffffffffffffffffffffff163373ffffffffffffffffffffffffffffffffffffffff161461103a576040517f08c379a000000000000000000000000000000000000000000000000000000000815260040161103190611c08565b60405180910390fd5b600160003373ffffffffffffffffffffffffffffffffffffffff1673ffffffffffffffffffffffffffffffffffffffff16815260200190815260200160002080549050905090565b61108a6113b1565b60008054906101000a900473ffffffffffffffffffffffffffffffffffffffff1673ffffffffffffffffffffffffffffffffffffffff163373ffffffffffffffffffffffffffffffffffffffff1614611118576040517f08c379a000000000000000000000000000000000000000000000000000000000815260040161110f90611c08565b60405180910390fd5b6000600160003373ffffffffffffffffffffffffffffffffffffffff1673ffffffffffffffffffffffffffffffffffffffff168152602001908152602001600020805480602002602001604051908101604052809291908181526020016000905b828210156112f457838290600052602060002090600402016040518060800160405290816000820180546111ac90611c57565b80601f01602080910402602001604051908101604052809291908181526020018280546111d890611c57565b80156112255780601f106111fa57610100808354040283529160200191611225565b820191906000526020600020905b81548152906001019060200180831161120857829003601f168201915b5050505050815260200160018201805461123e90611c57565b80601f016020809104026020016040519081016040528092919081815260200182805461126a90611c57565b80156112b75780601f1061128c576101008083540402835291602001916112b7565b820191906000526020600020905b81548152906001019060200180831161129a57829003601f168201915b50505050508152602001600282015481526020016003820160009054906101000a900460ff16151515158152505081526020019060010190611179565b50505050905060005b815181101561137057838051906020012082828151811061132157611320611f06565b5b602002602001015160000151805190602001200361135d5781818151811061134c5761134b611f06565b5b6020026020010151925050506113ac565b808061136890612069565b9150506112fd565b506040517f08c379a00000000000000000000000000000000000000000000000000000000081526004016113a3906120fd565b60405180910390fd5b919050565b60405180608001604052806060815260200160608152602001600081526020016000151581525090565b6000604051905090565b600080fd5b600080fd5b600080fd5b600080fd5b600080fd5b60008083601f840112611414576114136113ef565b5b8235905067ffffffffffffffff811115611431576114306113f4565b5b60208301915083600182028301111561144d5761144c6113f9565b5b9250929050565b6000806000806040858703121561146e5761146d6113e5565b5b600085013567ffffffffffffffff81111561148c5761148b6113ea565b5b611498878288016113fe565b9450945050602085013567ffffffffffffffff8111156114bb576114ba6113ea565b5b6114c7878288016113fe565b925092505092959194509250565b6000819050919050565b6114e8816114d5565b81146114f357600080fd5b50565b600081359050611505816114df565b92915050565b600060208284031215611521576115206113e5565b5b600061152f848285016114f6565b91505092915050565b600073ffffffffffffffffffffffffffffffffffffffff82169050919050565b600061156382611538565b9050919050565b61157381611558565b811461157e57600080fd5b50565b6000813590506115908161156a565b92915050565b600080604083850312156115ad576115ac6113e5565b5b60006115bb85828601611581565b92505060206115cc85828601611581565b9150509250929050565b6000806000604084860312156115ef576115ee6113e5565b5b600084013567ffffffffffffffff81111561160d5761160c6113ea565b5b611619868287016113fe565b9350935050602061162c868287016114f6565b9150509250925092565b61163f81611558565b82525050565b600060208201905061165a6000830184611636565b92915050565b600081519050919050565b600082825260208201905092915050565b60005b8381101561169a57808201518184015260208101905061167f565b60008484015250505050565b6000601f19601f8301169050919050565b60006116c282611660565b6116cc818561166b565b93506116dc81856020860161167c565b6116e5816116a6565b840191505092915050565b6116f9816114d5565b82525050565b60008115159050919050565b611714816116ff565b82525050565b6000608083016000830151848203600086015261173782826116b7565b9150506020830151848203602086015261175182826116b7565b915050604083015161176660408601826116f0565b506060830151611779606086018261170b565b508091505092915050565b6000602082019050818103600083015261179e818461171a565b905092915050565b6117af816116ff565b81146117ba57600080fd5b50565b6000813590506117cc816117a6565b92915050565b6000806000606084860312156117eb576117ea6113e5565b5b60006117f986828701611581565b935050602061180a86828701611581565b925050604061181b868287016117bd565b9150509250925092565b600081519050919050565b600082825260208201905092915050565b6000819050602082019050919050565b6000608083016000830151848203600086015261186e82826116b7565b9150506020830151848203602086015261188882826116b7565b915050604083015161189d60408601826116f0565b5060608301516118b0606086018261170b565b508091505092915050565b60006118c78383611851565b905092915050565b6000602082019050919050565b60006118e782611825565b6118f18185611830565b93508360208202850161190385611841565b8060005b8581101561193f578484038952815161192085826118bb565b945061192b836118cf565b925060208a01995050600181019050611907565b50829750879550505050505092915050565b6000602082019050818103600083015261196b81846118dc565b905092915050565b60008060008060006060868803121561198f5761198e6113e5565b5b600086013567ffffffffffffffff8111156119ad576119ac6113ea565b5b6119b9888289016113fe565b9550955050602086013567ffffffffffffffff8111156119dc576119db6113ea565b5b6119e8888289016113fe565b935093505060406119fb888289016114f6565b9150509295509295909350565b600080fd5b7f4e487b7100000000000000000000000000000000000000000000000000000000600052604160045260246000fd5b611a45826116a6565b810181811067ffffffffffffffff82111715611a6457611a63611a0d565b5b80604052505050565b6000611a776113db565b9050611a838282611a3c565b919050565b600067ffffffffffffffff821115611aa357611aa2611a0d565b5b611aac826116a6565b9050602081019050919050565b82818337600083830152505050565b6000611adb611ad684611a88565b611a6d565b905082815260208101848484011115611af757611af6611a08565b5b611b02848285611ab9565b509392505050565b600082601f830112611b1f57611b1e6113ef565b5b8135611b2f848260208601611ac8565b91505092915050565b600060208284031215611b4e57611b4d6113e5565b5b600082013567ffffffffffffffff811115611b6c57611b6b6113ea565b5b611b7884828501611b0a565b91505092915050565b611b8a816114d5565b82525050565b6000602082019050611ba56000830184611b81565b92915050565b600082825260208201905092915050565b7f43616c6c6572206973206e6f74206f776e657200000000000000000000000000600082015250565b6000611bf2601383611bab565b9150611bfd82611bbc565b602082019050919050565b60006020820190508181036000830152611c2181611be5565b9050919050565b7f4e487b7100000000000000000000000000000000000000000000000000000000600052602260045260246000fd5b60006002820490506001821680611c6f57607f821691505b602082108103611c8257611c81611c28565b5b50919050565b60008190508160005260206000209050919050565b60006020601f8301049050919050565b600082821b905092915050565b600060088302611cea7fffffffffffffffffffffffffffffffffffffffffffffffffffffffffffffffff82611cad565b611cf48683611cad565b95508019841693508086168417925050509392505050565b6000819050919050565b6000611d31611d2c611d27846114d5565b611d0c565b6114d5565b9050919050565b6000819050919050565b611d4b83611d16565b611d5f611d5782611d38565b848454611cba565b825550505050565b600090565b611d74611d67565b611d7f818484611d42565b505050565b5b81811015611da357611d98600082611d6c565b600181019050611d85565b5050565b601f821115611de857611db981611c88565b611dc284611c9d565b81016020851015611dd1578190505b611de5611ddd85611c9d565b830182611d84565b50505b505050565b600082821c905092915050565b6000611e0b60001984600802611ded565b1980831691505092915050565b6000611e248383611dfa565b9150826002028217905092915050565b611e3d82611660565b67ffffffffffffffff811115611e5657611e55611a0d565b5b611e608254611c57565b611e6b828285611da7565b600060209050601f831160018114611e9e5760008415611e8c578287015190505b611e968582611e18565b865550611efe565b601f198416611eac86611c88565b60005b82811015611ed457848901518255600182019150602085019450602081019050611eaf565b86831015611ef15784890151611eed601f891682611dfa565b8355505b6001600288020188555050505b505050505050565b7f4e487b7100000000000000000000000000000000000000000000000000000000600052603260045260246000fd5b600082905092915050565b611f4a8383611f35565b67ffffffffffffffff811115611f6357611f62611a0d565b5b611f6d8254611c57565b611f78828285611da7565b6000601f831160018114611fa75760008415611f95578287013590505b611f9f8582611e18565b865550612007565b601f198416611fb586611c88565b60005b82811015611fdd57848901358255600182019150602085019450602081019050611fb8565b86831015611ffa5784890135611ff6601f891682611dfa565b8355505b6001600288020188555050505b50505050505050565b612019816116ff565b82525050565b60006020820190506120346000830184612010565b92915050565b7f4e487b7100000000000000000000000000000000000000000000000000000000600052601160045260246000fd5b6000612074826114d5565b91507fffffffffffffffffffffffffffffffffffffffffffffffffffffffffffffffff82036120a6576120a561203a565b5b600182019050919050565b7f4669656c6420776173206e6f7420666f756e6400000000000000000000000000600082015250565b60006120e7601383611bab565b91506120f2826120b1565b602082019050919050565b60006020820190508181036000830152612116816120da565b905091905056fea2646970667358221220110746cbdadb5b0f6571fe5148849e895c7a91392b7e94d5992c8c867e59c71564736f6c63430008110033",
  "immutableReferences": {},
  "source": "// SPDX-License-Identifier: GPL-3.0\r\npragma solidity >=0.7.0 <0.9.0;\r\n\r\nimport \"./DataStructures.sol\";\r\n\r\n/**\r\n * @title FieldOperations\r\n * @dev (user new data key atomicKey) Store new commited pairs of data (key & value) defined by the user.\r\n */\r\ncontract FieldOperations is DataStructures {\r\n    // ++ States ++\r\n    address private owner;\r\n    // Maps atomic-key to field structures (atomicKey => Field)\r\n    mapping(address => Field[]) private _addressFields;\r\n\r\n    // ++ Events ++\r\n    event requestSent(address indexed requester, address indexed accepter, uint indexed date);\r\n    event requestAnswered(address indexed accepter, address indexed requester, uint indexed date, bool status);\r\n\r\n    constructor() {\r\n        owner = msg.sender;\r\n    }\r\n\r\n    modifier isOwner() { \r\n        require(msg.sender == owner, \"Caller is not owner\");\r\n        _;\r\n    }\r\n    \r\n    // ++ Getter functions ++ \r\n    /**\r\n     * @notice Returns the address of the owner\r\n     * @dev Address of whom deployed the smart contract\r\n     */\r\n    function getOwner() external view isOwner() returns(address) {\r\n        return owner;\r\n    }\r\n    /**\r\n     * @notice Returns the number of fields belonging to the user\r\n     * @dev Use atomic-key to access\r\n     */\r\n    function getNumberFields() external view isOwner() returns(uint) {\r\n        return _addressFields[msg.sender].length;\r\n    }\r\n    /**\r\n     * @notice Returns all fields\r\n     * @dev \r\n     */\r\n    function getFields() external view isOwner() returns(Field[] memory) {\r\n        return _addressFields[msg.sender];\r\n    }\r\n    /**\r\n     * @notice Returns one field by index\r\n     * @dev \r\n     */\r\n    function getFieldByIndex(uint _index) external view isOwner() returns(Field memory) {\r\n        return _addressFields[msg.sender][_index];\r\n    }\r\n    /**\r\n     * @notice Returns one field by key\r\n     * @dev \r\n     */\r\n    function getFieldByKey(bytes memory _key) external view isOwner() returns(Field memory) {\r\n        return _searchField(_key);\r\n    }\r\n    /**\r\n     * @notice Returned field if input key is matched\r\n     * @dev \r\n     */\r\n    function _searchField(bytes memory _key) private view isOwner() returns(Field memory) {\r\n        Field[] memory _fields = _addressFields[msg.sender];\r\n        for (uint i = 0; i < _fields.length; i++) {\r\n            if (keccak256(_fields[i].key) == keccak256(_key)) {\r\n                return _fields[i];\r\n            }\r\n        }\r\n        revert(\"Field was not found\");\r\n    }\r\n    // ++ Setter functions ++\r\n    /**\r\n     * @notice Adds a new field for the user\r\n     * @dev Add one field and stores it in 'fields' state \r\n     * and 'userFieldCounts' adds up 1 for the user\r\n     */\r\n    function addField(bytes calldata _key, bytes calldata _value) external isOwner() {\r\n        Field memory _field;\r\n        _field.key = _key;\r\n        _field.value = _value;\r\n        _field.updateDate = block.timestamp;\r\n        _field.active = true;\r\n        // Insert new Field struct\r\n        _addressFields[msg.sender].push(_field);\r\n    }\r\n    /**\r\n     * @notice Modify both key and value\r\n     * @dev \r\n     */\r\n    function modifyField(bytes calldata _key, bytes calldata _value, uint _index) external isOwner() {\r\n        Field storage _field = _addressFields[msg.sender][_index];\r\n        _field.key = _key;\r\n        _field.value = _value;\r\n        _field.updateDate = block.timestamp;\r\n    }\r\n    /**\r\n     * @notice Modify only key of field\r\n     * @dev \r\n     */\r\n    function modifyFieldKey(bytes calldata _key, uint _index) external isOwner() {\r\n        Field storage _field = _addressFields[msg.sender][_index];\r\n        _field.key = _key;\r\n        _field.updateDate = block.timestamp;\r\n    }\r\n    /**\r\n     * @notice Modify only value of field\r\n     * @dev \r\n     */\r\n    function modifyFieldValue(bytes calldata _value, uint _index) external isOwner() {\r\n        Field storage _field = _addressFields[msg.sender][_index];\r\n        _field.value = _value;\r\n        _field.updateDate = block.timestamp;\r\n    }\r\n    /**\r\n     * @notice Set active field\r\n     * @dev \r\n     */\r\n    function toggleActiveField(uint _index) external isOwner() {\r\n        Field storage _field = _addressFields[msg.sender][_index];\r\n        _field.active = !_field.active;\r\n    }\r\n    // ++ Event functions ++\r\n    /**\r\n     * @notice Send request from user to other user. Full or partial field request\r\n     * @dev \r\n     */\r\n    function sendRequest(address _requester, address _accepter) external {\r\n        emit requestSent(_requester, _accepter, block.timestamp);\r\n    }\r\n    /**\r\n     * @notice Accept request from user.\r\n     * @dev \r\n     */\r\n    function answerRequest(address _requester, address _accepter, bool status) external {\r\n        emit requestAnswered(_requester, _accepter, block.timestamp, status);\r\n    }\r\n}\r\n",
  "sourcePath": "C:\\Users\\marsu\\Programming projects\\Solidity and Dapps\\Data pocket\\Data-pocket\\contracts\\FieldOperations.sol",
  "compiler": {
    "name": "solc",
    "version": "0.8.17+commit.8df45f5f.Emscripten.clang"
  },
  "schemaVersion": "3.4.11",
  "updatedAt": "2023-04-05T23:09:09.585Z",
  "networkType": "ethereum",
  "devdoc": {
    "details": "(user new data key atomicKey) Store new commited pairs of data (key & value) defined by the user.",
    "kind": "dev",
    "methods": {
      "addField(bytes,bytes)": {
        "details": "Add one field and stores it in 'fields' state  and 'userFieldCounts' adds up 1 for the user"
      },
      "getNumberFields()": {
        "details": "Use atomic-key to access"
      },
      "getOwner()": {
        "details": "Address of whom deployed the smart contract"
      }
    },
    "title": "FieldOperations",
    "version": 1
  },
  "userdoc": {
    "kind": "user",
    "methods": {
      "addField(bytes,bytes)": {
        "notice": "Adds a new field for the user"
      },
      "answerRequest(address,address,bool)": {
        "notice": "Accept request from user."
      },
      "getFieldByIndex(uint256)": {
        "notice": "Returns one field by index"
      },
      "getFieldByKey(bytes)": {
        "notice": "Returns one field by key"
      },
      "getFields()": {
        "notice": "Returns all fields"
      },
      "getNumberFields()": {
        "notice": "Returns the number of fields belonging to the user"
      },
      "getOwner()": {
        "notice": "Returns the address of the owner"
      },
      "modifyField(bytes,bytes,uint256)": {
        "notice": "Modify both key and value"
      },
      "modifyFieldKey(bytes,uint256)": {
        "notice": "Modify only key of field"
      },
      "modifyFieldValue(bytes,uint256)": {
        "notice": "Modify only value of field"
      },
      "sendRequest(address,address)": {
        "notice": "Send request from user to other user. Full or partial field request"
      },
      "toggleActiveField(uint256)": {
        "notice": "Set active field"
      }
    },
    "version": 1
  }
}